{
  "contractName": "Tickets",
  "abi": [
    {
      "inputs": [],
      "stateMutability": "nonpayable",
      "type": "constructor"
    },
    {
      "inputs": [],
      "name": "owner",
      "outputs": [
        {
          "internalType": "address",
          "name": "",
          "type": "address"
        }
      ],
      "stateMutability": "view",
      "type": "function"
    },
    {
      "inputs": [
        {
          "internalType": "uint256",
          "name": "",
          "type": "uint256"
        }
      ],
      "name": "tickets",
      "outputs": [
        {
          "internalType": "uint256",
          "name": "price",
          "type": "uint256"
        },
        {
          "internalType": "address",
          "name": "owner",
          "type": "address"
        }
      ],
      "stateMutability": "view",
      "type": "function"
    },
    {
      "inputs": [
        {
          "internalType": "uint256",
          "name": "_index",
          "type": "uint256"
        }
      ],
      "name": "buyTicket",
      "outputs": [],
      "stateMutability": "payable",
      "type": "function"
    }
  ],
  "bytecode": "0x6080604052336000806101000a81548173ffffffffffffffffffffffffffffffffffffffff021916908373ffffffffffffffffffffffffffffffffffffffff16021790555034801561005057600080fd5b5060005b60148110156100f35767016345785d8a00006001826014811061007a576100796100f9565b5b600202016000018190555060006001826014811061009b5761009a6100f9565b5b6002020160010160006101000a81548173ffffffffffffffffffffffffffffffffffffffff021916908373ffffffffffffffffffffffffffffffffffffffff16021790555080806100eb90610161565b915050610054565b506101aa565b7f4e487b7100000000000000000000000000000000000000000000000000000000600052603260045260246000fd5b7f4e487b7100000000000000000000000000000000000000000000000000000000600052601160045260246000fd5b6000819050919050565b600061016c82610157565b91507fffffffffffffffffffffffffffffffffffffffffffffffffffffffffffffffff82141561019f5761019e610128565b5b600182019050919050565b6103a0806101b96000396000f3fe6080604052600436106100345760003560e01c806350b447121461003957806367dd74ca146100775780638da5cb5b14610093575b600080fd5b34801561004557600080fd5b50610060600480360381019061005b919061027a565b6100be565b60405161006e9291906102f7565b60405180910390f35b610091600480360381019061008c919061027a565b610108565b005b34801561009f57600080fd5b506100a861021b565b6040516100b59190610320565b60405180910390f35b600181601481106100ce57600080fd5b600202016000915090508060000154908060010160009054906101000a900473ffffffffffffffffffffffffffffffffffffffff16905082565b601481108015610119575060008110155b61012257600080fd5b600073ffffffffffffffffffffffffffffffffffffffff166001826014811061014e5761014d61033b565b5b6002020160010160009054906101000a900473ffffffffffffffffffffffffffffffffffffffff1673ffffffffffffffffffffffffffffffffffffffff161461019657600080fd5b600181601481106101aa576101a961033b565b5b60020201600001543410156101be57600080fd5b33600182601481106101d3576101d261033b565b5b6002020160010160006101000a81548173ffffffffffffffffffffffffffffffffffffffff021916908373ffffffffffffffffffffffffffffffffffffffff16021790555050565b60008054906101000a900473ffffffffffffffffffffffffffffffffffffffff1681565b600080fd5b6000819050919050565b61025781610244565b811461026257600080fd5b50565b6000813590506102748161024e565b92915050565b6000602082840312156102905761028f61023f565b5b600061029e84828501610265565b91505092915050565b6102b081610244565b82525050565b600073ffffffffffffffffffffffffffffffffffffffff82169050919050565b60006102e1826102b6565b9050919050565b6102f1816102d6565b82525050565b600060408201905061030c60008301856102a7565b61031960208301846102e8565b9392505050565b600060208201905061033560008301846102e8565b92915050565b7f4e487b7100000000000000000000000000000000000000000000000000000000600052603260045260246000fdfea26469706673582212203b3e28602dba68abec45ceb406f2a5c1f3c0bcc003213d0be90d761278d1766d64736f6c634300080b0033",
  "immutableReferences": {},
  "source": "pragma solidity >=0.4.22 <0.9.0; // tells about versions\n\nuint256 constant TOTAL_TICKETS = 20; \n\ncontract Tickets { // any thing which we define as contract is called a smart contract in Solidity \n                   // anything we create here  will be deployed on the Ethereum blockchain and used to store and use.\n  address public owner = msg.sender; //  'msg' variable gives us information about the account  that sent this transaction and 'owner' stores that senders address\n\n  struct Ticket {\n    uint256 price; //  the price of each ticket // uint256 is a datatype\n    address owner;  // who owns this ticket?\n  }\n\n  Ticket[TOTAL_TICKETS] public tickets;\n\n  constructor() { // same as java constructor \n    for (uint256 i = 0; i < TOTAL_TICKETS; i++) {\n      tickets[i].price = 1e17; // 0.1 ETH\n      tickets[i].owner = address(0x0); //  null address, means no one has it yet  \n    }\n  }\n\n  function buyTicket(uint256 _index) external payable {\n    require(_index < TOTAL_TICKETS && _index >= 0);\n    require(tickets[_index].owner == address(0x0));\n    require(msg.value >= tickets[_index].price);// msg value  is how much ethereum sent to this function\n    tickets[_index].owner = msg.sender;\n  }\n}//_index is an input parameter of type uint256",
  "sourcePath": "/Users/shivacharanmandhapuram/Movies/contracts/Tickets.sol",
  "compiler": {
    "name": "solc",
    "version": "0.8.11+commit.d7f03943.Emscripten.clang"
  },
  "schemaVersion": "3.4.16",
  "updatedAt": "2024-04-09T18:01:08.600Z",
  "devdoc": {
    "kind": "dev",
    "methods": {},
    "version": 1
  },
  "userdoc": {
    "kind": "user",
    "methods": {},
    "version": 1
  }
}